:1000000012C02CC02BC02AC029C028C027C026C0BF
:1000100025C024C023C022C021C020C01FC01EC0D4
:100020001DC01CC01BC011241FBECFE5D4E0DEBF25
:10003000CDBF10E0A0E6B0E0E6E1F1E002C005903F
:100040000D92A036B107D9F710E0A0E6B0E001C0EC
:100050001D92A036B107E1F70FD05BC0D1CF80E68B
:1000600087B986EA86B90895369A80E29EE40197B8
:10007000F1F785B190E0089584B38C6384BB889ACE
:1000800080E687B986EA86B928EE33E0B0E648EC28
:1000900050E060E27EE4A1E605C0CA010197F1F7F5
:1000A0002150304021153105C1F7B7B980E991E001
:1000B000FA013197F1F70197D9F7369ACB010197F9
:1000C000F1F725B188EE93E0FA013197F1F7019746
:1000D000D9F7A7B980E991E0FA013197F1F70197D3
:1000E000D9F7369ACB010197F1F795B1921738F00D
:1000F000AA98909885B3886385BB291738F085B393
:10010000877D85BB909A85B3846185BB28EE33E0FB
:06011000C4CFF894FFCFFC
:00000001FF
